{
  "address": "0x34995543aaf1E679c9e7a5BB7fCD8A77f5AF2f9b",
  "abi": [
    {
      "inputs": [
        {
          "internalType": "address",
          "name": "_router",
          "type": "address"
        },
        {
          "internalType": "address",
          "name": "_comptroller",
          "type": "address"
        },
        {
          "internalType": "address",
          "name": "_cEther",
          "type": "address"
        },
        {
          "internalType": "address",
          "name": "_borrowOracle",
          "type": "address"
        },
        {
          "internalType": "address",
          "name": "_supplyOracle",
          "type": "address"
        },
        {
          "internalType": "address",
          "name": "_cTokenToSupply",
          "type": "address"
        },
        {
          "internalType": "address",
          "name": "_cTokenToBorrow",
          "type": "address"
        }
      ],
      "stateMutability": "nonpayable",
      "type": "constructor"
    },
    {
      "inputs": [],
      "name": "Compound_cTokenBorrow",
      "type": "error"
    },
    {
      "inputs": [],
      "name": "Compound_cTokenMint",
      "type": "error"
    },
    {
      "inputs": [],
      "name": "Compound_cTokenRedeem",
      "type": "error"
    },
    {
      "inputs": [],
      "name": "Compound_cTokenRepayborrow",
      "type": "error"
    },
    {
      "inputs": [],
      "name": "Compound_comptrollerAccountLiquidityError",
      "type": "error"
    },
    {
      "inputs": [],
      "name": "Compound_comptrollerAccountLiquidityZero",
      "type": "error"
    },
    {
      "inputs": [],
      "name": "Compound_comptrollerAccountLiquidityshortfall",
      "type": "error"
    },
    {
      "inputs": [],
      "name": "Compound_comptrollerEntermarket",
      "type": "error"
    },
    {
      "anonymous": false,
      "inputs": [
        {
          "indexed": true,
          "internalType": "address",
          "name": "_from",
          "type": "address"
        },
        {
          "indexed": false,
          "internalType": "uint256",
          "name": "_amount",
          "type": "uint256"
        }
      ],
      "name": "Deposit",
      "type": "event"
    },
    {
      "anonymous": false,
      "inputs": [
        {
          "indexed": false,
          "internalType": "address",
          "name": "account",
          "type": "address"
        }
      ],
      "name": "Paused",
      "type": "event"
    },
    {
      "anonymous": false,
      "inputs": [
        {
          "indexed": true,
          "internalType": "uint256",
          "name": "id",
          "type": "uint256"
        },
        {
          "indexed": true,
          "internalType": "address",
          "name": "owner",
          "type": "address"
        },
        {
          "indexed": false,
          "internalType": "bool",
          "name": "oldIsActive",
          "type": "bool"
        },
        {
          "indexed": false,
          "internalType": "bool",
          "name": "newIsActive",
          "type": "bool"
        },
        {
          "indexed": false,
          "internalType": "uint256",
          "name": "oldDepositAmount",
          "type": "uint256"
        },
        {
          "indexed": false,
          "internalType": "uint256",
          "name": "newDepositAmount",
          "type": "uint256"
        },
        {
          "indexed": false,
          "internalType": "uint256",
          "name": "oldBorrowAmount",
          "type": "uint256"
        },
        {
          "indexed": false,
          "internalType": "uint256",
          "name": "newBorrowAmount",
          "type": "uint256"
        },
        {
          "indexed": false,
          "internalType": "uint256",
          "name": "oldLeverageAmount",
          "type": "uint256"
        },
        {
          "indexed": false,
          "internalType": "uint256",
          "name": "newLeverageAmount",
          "type": "uint256"
        }
      ],
      "name": "PositionUpdate",
      "type": "event"
    },
    {
      "anonymous": false,
      "inputs": [
        {
          "indexed": false,
          "internalType": "address",
          "name": "account",
          "type": "address"
        }
      ],
      "name": "Unpaused",
      "type": "event"
    },
    {
      "anonymous": false,
      "inputs": [
        {
          "indexed": true,
          "internalType": "address",
          "name": "_caller",
          "type": "address"
        },
        {
          "indexed": true,
          "internalType": "address",
          "name": "_token",
          "type": "address"
        },
        {
          "indexed": true,
          "internalType": "address",
          "name": "_to",
          "type": "address"
        },
        {
          "indexed": false,
          "internalType": "uint256",
          "name": "_amount",
          "type": "uint256"
        }
      ],
      "name": "WithdrawERC20",
      "type": "event"
    },
    {
      "anonymous": false,
      "inputs": [
        {
          "indexed": true,
          "internalType": "address",
          "name": "_caller",
          "type": "address"
        },
        {
          "indexed": true,
          "internalType": "address",
          "name": "_to",
          "type": "address"
        },
        {
          "indexed": false,
          "internalType": "uint256",
          "name": "_amount",
          "type": "uint256"
        }
      ],
      "name": "WithdrawETH",
      "type": "event"
    },
    {
      "inputs": [],
      "name": "BASIS_POINTS_GRANULARITY",
      "outputs": [
        {
          "internalType": "uint256",
          "name": "",
          "type": "uint256"
        }
      ],
      "stateMutability": "view",
      "type": "function"
    },
    {
      "inputs": [],
      "name": "borrowOracle",
      "outputs": [
        {
          "internalType": "contract IOracleRef",
          "name": "",
          "type": "address"
        }
      ],
      "stateMutability": "view",
      "type": "function"
    },
    {
      "inputs": [],
      "name": "cEther",
      "outputs": [
        {
          "internalType": "contract ICEther",
          "name": "",
          "type": "address"
        }
      ],
      "stateMutability": "view",
      "type": "function"
    },
    {
      "inputs": [],
      "name": "cTokenToBorrow",
      "outputs": [
        {
          "internalType": "contract ICToken",
          "name": "",
          "type": "address"
        }
      ],
      "stateMutability": "view",
      "type": "function"
    },
    {
      "inputs": [],
      "name": "cTokenToSupply",
      "outputs": [
        {
          "internalType": "contract ICEther",
          "name": "",
          "type": "address"
        }
      ],
      "stateMutability": "view",
      "type": "function"
    },
    {
      "inputs": [],
      "name": "closePosition",
      "outputs": [],
      "stateMutability": "nonpayable",
      "type": "function"
    },
    {
      "inputs": [],
      "name": "comptroller",
      "outputs": [
        {
          "internalType": "contract IComptroller",
          "name": "",
          "type": "address"
        }
      ],
      "stateMutability": "view",
      "type": "function"
    },
    {
      "inputs": [],
      "name": "getCurrentBorrowAmount",
      "outputs": [
        {
          "internalType": "uint256",
          "name": "",
          "type": "uint256"
        }
      ],
      "stateMutability": "view",
      "type": "function"
    },
    {
      "inputs": [],
      "name": "getCurrentDepositAmount",
      "outputs": [
        {
          "internalType": "uint256",
          "name": "",
          "type": "uint256"
        }
      ],
      "stateMutability": "view",
      "type": "function"
    },
    {
      "inputs": [],
      "name": "getCurrentETHPrice",
      "outputs": [
        {
          "internalType": "uint256",
          "name": "currentETHPrice",
          "type": "uint256"
        }
      ],
      "stateMutability": "view",
      "type": "function"
    },
    {
      "inputs": [],
      "name": "getCurrentLeverageAmount",
      "outputs": [
        {
          "internalType": "uint256",
          "name": "",
          "type": "uint256"
        }
      ],
      "stateMutability": "view",
      "type": "function"
    },
    {
      "inputs": [],
      "name": "getCurrentPositionOwner",
      "outputs": [
        {
          "internalType": "address",
          "name": "",
          "type": "address"
        }
      ],
      "stateMutability": "view",
      "type": "function"
    },
    {
      "inputs": [],
      "name": "getExpectedProfitInUsd",
      "outputs": [
        {
          "internalType": "uint256",
          "name": "",
          "type": "uint256"
        }
      ],
      "stateMutability": "view",
      "type": "function"
    },
    {
      "inputs": [],
      "name": "getExpectedUniSwapOutput",
      "outputs": [
        {
          "internalType": "uint256",
          "name": "",
          "type": "uint256"
        }
      ],
      "stateMutability": "view",
      "type": "function"
    },
    {
      "inputs": [],
      "name": "getMaxBorrowAmount",
      "outputs": [
        {
          "internalType": "uint256",
          "name": "",
          "type": "uint256"
        }
      ],
      "stateMutability": "view",
      "type": "function"
    },
    {
      "inputs": [],
      "name": "getMaxLeverage",
      "outputs": [
        {
          "components": [
            {
              "internalType": "uint256",
              "name": "value",
              "type": "uint256"
            }
          ],
          "internalType": "struct Decimal.D256",
          "name": "",
          "type": "tuple"
        }
      ],
      "stateMutability": "pure",
      "type": "function"
    },
    {
      "inputs": [],
      "name": "getTotalExposure",
      "outputs": [
        {
          "internalType": "uint256",
          "name": "",
          "type": "uint256"
        }
      ],
      "stateMutability": "view",
      "type": "function"
    },
    {
      "inputs": [],
      "name": "isCurrentPositionActive",
      "outputs": [
        {
          "internalType": "bool",
          "name": "",
          "type": "bool"
        }
      ],
      "stateMutability": "view",
      "type": "function"
    },
    {
      "inputs": [],
      "name": "leverage",
      "outputs": [
        {
          "internalType": "uint256",
          "name": "",
          "type": "uint256"
        }
      ],
      "stateMutability": "view",
      "type": "function"
    },
    {
      "inputs": [],
      "name": "openPosition",
      "outputs": [
        {
          "internalType": "uint256",
          "name": "",
          "type": "uint256"
        }
      ],
      "stateMutability": "payable",
      "type": "function"
    },
    {
      "inputs": [],
      "name": "paused",
      "outputs": [
        {
          "internalType": "bool",
          "name": "",
          "type": "bool"
        }
      ],
      "stateMutability": "view",
      "type": "function"
    },
    {
      "inputs": [],
      "name": "supplyOracle",
      "outputs": [
        {
          "internalType": "contract IOracleRef",
          "name": "",
          "type": "address"
        }
      ],
      "stateMutability": "view",
      "type": "function"
    },
    {
      "stateMutability": "payable",
      "type": "receive"
    }
  ],
  "transactionHash": "0x7c18a7add85a1816085d00b8887baad6a92b432c736473edbbf6e02fa55acf1d",
  "args": [
    "0x7a250d5630B4cF539739dF2C5dAcb4c659F2488D",
    "0x3d9819210A31b4961b30EF54bE2aeD79B9c9Cd3B",
    "0x4Ddc2D193948926D02f9B1fE9e1daa0718270ED5",
    "0x73B65B8aAeA0B7DF97E8A8a0537e1a0676052822",
    "0x6865a842548f3Fe233C93e77487578B0Cc468B1f",
    "0x4Ddc2D193948926D02f9B1fE9e1daa0718270ED5",
    "0x5d3a536E4D6DbD6114cc1Ead35777bAB948E3643"
  ],
  "numDeployments": 1,
  "solcInputHash": "00805697ef62fdb68a8fef88f0980135",
  "bytecode": "0x61012060405261271060e052610bb86101005260016005553480156200002457600080fd5b50604051620036e5380380620036e5833981016040819052620000479162000574565b6000805460ff191690558686866001600160a01b038216158015906200007557506001600160a01b03811615155b620000c15760405162461bcd60e51b81526020600482015260226024820152600080516020620036c5833981519152604482015261737360f01b60648201526084015b60405180910390fd5b6001600160a01b03918216608052811660a05281166200011e5760405162461bcd60e51b81526020600482015260226024820152600080516020620036c5833981519152604482015261737360f01b6064820152608401620000b8565b6001600160a01b0390811660c0528416158015906200014557506001600160a01b03831615155b80156200015a57506001600160a01b03821615155b80156200016f57506001600160a01b03811615155b620001b75760405162461bcd60e51b81526020600482015260226024820152600080516020620036c5833981519152604482015261737360f01b6064820152608401620000b8565b600080546001600160a01b0380871661010002610100600160a81b031990921691909117909155600180548583166001600160a01b03199182161790915560028054928516929091168217905560408051637f4e225760e11b8152905163fe9c44ae916004808201926020929091908290030181865afa15801562000240573d6000803e3d6000fd5b505050506040513d601f19601f8201168201806040525081019062000266919062000609565b620002a35760405162461bcd60e51b815260206004820152600c60248201526b2737ba10309031aa37b5b2b760a11b6044820152606401620000b8565b600380546001600160a01b0319166001600160a01b03831690811790915560408051637f4e225760e11b8152905163fe9c44ae916004808201926020929091908290030181865afa158015620002fd573d6000803e3d6000fd5b505050506040513d601f19601f8201168201806040525081019062000323919062000609565b620003605760405162461bcd60e51b815260206004820152600c60248201526b2737ba10309031aa37b5b2b760a11b6044820152606401620000b8565b600360009054906101000a90046001600160a01b03166001600160a01b0316636f307dc36040518163ffffffff1660e01b8152600401602060405180830381865afa158015620003b4573d6000803e3d6000fd5b505050506040513d601f19601f82011682018060405250810190620003da919062000634565b60c05160405163095ea7b360e01b81526001600160a01b039182166004820152600019602482015291169063095ea7b3906044016020604051808303816000875af11580156200042e573d6000803e3d6000fd5b505050506040513d601f19601f8201168201806040525081019062000454919062000609565b50600360009054906101000a90046001600160a01b03166001600160a01b0316636f307dc36040518163ffffffff1660e01b8152600401602060405180830381865afa158015620004a9573d6000803e3d6000fd5b505050506040513d601f19601f82011682018060405250810190620004cf919062000634565b60035460405163095ea7b360e01b81526001600160a01b039182166004820152600019602482015291169063095ea7b3906044016020604051808303816000875af115801562000523573d6000803e3d6000fd5b505050506040513d601f19601f8201168201806040525081019062000549919062000609565b505050505050505062000652565b80516001600160a01b03811681146200056f57600080fd5b919050565b600080600080600080600060e0888a0312156200059057600080fd5b6200059b8862000557565b9650620005ab6020890162000557565b9550620005bb6040890162000557565b9450620005cb6060890162000557565b9350620005db6080890162000557565b9250620005eb60a0890162000557565b9150620005fb60c0890162000557565b905092959891949750929550565b6000602082840312156200061c57600080fd5b815180151581146200062d57600080fd5b9392505050565b6000602082840312156200064757600080fd5b6200062d8262000557565b60805160a05160c05160e05161010051612fd3620006f2600039600081816101ef01526106380152600081816104150152610614015260008181610eb10152818161130f015281816113c70152818161149801528181611584015261197301526000818161018001528181611be70152611de70152600081816103e101528181611ade01528181611c900152818161204301526120a70152612fd36000f3fe6080604052600436106101395760003560e01c806368b504e8116100ab578063ac8bd5751161006f578063ac8bd575146104a6578063c2cf2a3814610524578063c393d0e314610544578063d1d87f531461055b578063e0498f5214610570578063e2201dc71461058557600080fd5b806368b504e81461040357806371bad47d146104375780638ac6d2171461044c5780639aba22f8146104615780639e71f8271461048157600080fd5b8063388cd6dd116100fd578063388cd6dd146102195780633f8e455d146102955780635307b3f2146103115780635c975abb146103975780635ea465c1146103af5780635fe3b567146103cf57600080fd5b80630ea8b3bf1461014557806319b68c001461016e5780631a3f46a0146101ba5780632c86d98e146101dd578063350245c21461021157600080fd5b3661014057005b600080fd5b34801561015157600080fd5b5061015a610603565b604051905181526020015b60405180910390f35b34801561017a57600080fd5b506101a27f000000000000000000000000000000000000000000000000000000000000000081565b6040516001600160a01b039091168152602001610165565b3480156101c657600080fd5b506101cf610663565b604051908152602001610165565b3480156101e957600080fd5b506101cf7f000000000000000000000000000000000000000000000000000000000000000081565b6101cf6107f2565b34801561022557600080fd5b50600554600090815260046020818152604092839020835160c0810185528154815260018201546001600160a01b03811693820193909352600160a01b90920460ff16151593820193909352600283015460608201526003830154608082015291015460a09091018190526101cf565b3480156102a157600080fd5b50600554600090815260046020818152604092839020835160c0810185528154815260018201546001600160a01b038116938201849052600160a01b900460ff1615159481019490945260028101546060850152600381015460808501529091015460a0909201919091526101a2565b34801561031d57600080fd5b50600554600090815260046020818152604092839020835160c0810185528154815260018201546001600160a01b03811693820193909352600160a01b90920460ff16151593820184905260028101546060830152600381015460808301529091015460a0909101525b6040519015158152602001610165565b3480156103a357600080fd5b5060005460ff16610387565b3480156103bb57600080fd5b506003546101a2906001600160a01b031681565b3480156103db57600080fd5b506101a27f000000000000000000000000000000000000000000000000000000000000000081565b34801561040f57600080fd5b506101cf7f000000000000000000000000000000000000000000000000000000000000000081565b34801561044357600080fd5b506101cf610a9e565b34801561045857600080fd5b506101cf610b1f565b34801561046d57600080fd5b506001546101a2906001600160a01b031681565b34801561048d57600080fd5b506000546101a29061010090046001600160a01b031681565b3480156104b257600080fd5b50600554600090815260046020818152604092839020835160c0810185528154815260018201546001600160a01b03811693820193909352600160a01b90920460ff1615159382019390935260028301546060820181905260038401546080830152929091015460a0909101526101cf565b34801561053057600080fd5b506002546101a2906001600160a01b031681565b34801561055057600080fd5b50610559610b95565b005b34801561056757600080fd5b506101cf610e35565b34801561057c57600080fd5b506101cf610f9a565b34801561059157600080fd5b50600554600090815260046020818152604092839020835160c0810185528154815260018201546001600160a01b03811693820193909352600160a01b90920460ff1615159382019390935260028301546060820152600383015460808201819052929091015460a0909101526101cf565b6040805160208101909152600081527f000000000000000000000000000000000000000000000000000000000000000061065d7f00000000000000000000000000000000000000000000000000000000000000008261109d565b91505090565b6003546040516395dd919360e01b815230600482015260009182916001600160a01b03909116906395dd919390602401602060405180830381865afa1580156106b0573d6000803e3d6000fd5b505050506040513d601f19601f820116820180604052508101906106d49190612b78565b9050600061076161075c83600060019054906101000a90046001600160a01b03166001600160a01b0316633be8261b6040518163ffffffff1660e01b8152600401602060405180830381865afa158015610732573d6000803e3d6000fd5b505050506040513d601f19601f820116820180604052508101906107569190612bd8565b906110d3565b6110fb565b9050600061076d610e35565b905060006107cb61075c83600060019054906101000a90046001600160a01b03166001600160a01b0316633be8261b6040518163ffffffff1660e01b8152600401602060405180830381865afa158015610732573d6000803e3d6000fd5b9050828111156107e8576107df8382612c30565b94505050505090565b6107df8184612c30565b6000805460ff161561083e5760405162461bcd60e51b815260206004820152601060248201526f14185d5cd8589b194e881c185d5cd95960821b60448201526064015b60405180910390fd5b600034116108a45760405162461bcd60e51b815260206004820152602d60248201527f6d7573742073656e6420617262697461727920616d6f756e74206f662065746860448201526c0cae440c2d8dedcce40eed2e8d609b1b6064820152608401610835565b60055460009081526004602052604090206001810154600160a01b900460ff16156109115760405162461bcd60e51b815260206004820152601a60248201527f706f736974696f6e20697320616c7265616479206163746976650000000000006044820152606401610835565b60018101805460ff60a01b198116600160a01b908117835560055484556001600160a81b03199091163317179055346002820181905561095081611118565b60405134815233907fe1fffcc4923d04b559f4d29a8bfc6cda04eb5b0d3c460751c2402c5c5cc9109c9060200160405180910390a2600061099082611131565b6003840181905590506109a281611205565b6000610a2482600360009054906101000a90046001600160a01b03166001600160a01b0316636f307dc36040518163ffffffff1660e01b8152600401602060405180830381865afa1580156109fb573d6000803e3d6000fd5b505050506040513d601f19601f82011682018060405250810190610a1f9190612c47565b6112b4565b60048501819055600554604080516000808252600160208301528183018190523460608301526080820181905260a0820187905260c082015260e08101849052905192935033927fb8cb9bca0822afb29d936f6772d07a8cb0be01500e14140bf17bf61bc2c2d97c918190036101000190a3935050505090565b6000610b1a600160009054906101000a90046001600160a01b03166001600160a01b0316633be8261b6040518163ffffffff1660e01b8152600401602060405180830381865afa158015610af6573d6000803e3d6000fd5b505050506040513d601f19601f8201168201806040525081019061075c9190612bd8565b905090565b6005546000908152600460208181526040808420815160c0810183528154815260018201546001600160a01b03811694820194909452600160a01b90930460ff161515918301919091526002810154606083018190526003820154608084015292015460a08201819052909161065d9190612c70565b60005460ff1615610bdb5760405162461bcd60e51b815260206004820152601060248201526f14185d5cd8589b194e881c185d5cd95960821b6044820152606401610835565b6005546000818152600460208181526040808420815160c081018352815481526001808301546001600160a01b03811683870152600160a01b900460ff16151593820184905260028301546060830152600383015460808301528286015460a083015296909552929091529192909114610c975760405162461bcd60e51b815260206004820152601f60248201527f63757272656e7420706f736974696f6e206d75737420626520616374697665006044820152606401610835565b60018101805460ff60a01b1981169091556001600160a01b03163314610cff5760405162461bcd60e51b815260206004820181905260248201527f6f6e6c7920706f736974696f6e206f776e65722063616e2077697468647261776044820152606401610835565b6000600282015560048082015460035460408051636f307dc360e01b81529051610d80946001600160a01b0390931692636f307dc3928082019260209290918290030181865afa158015610d57573d6000803e3d6000fd5b505050506040513d601f19601f82011682018060405250810190610d7b9190612c47565b611471565b506000600382018190556004820155610d9761160b565b60055460608084015160808086015160a08088015160408051600181526000602082018190529181019690965295850186905292840191909152820183905260c082015260e08101919091523391907fb8cb9bca0822afb29d936f6772d07a8cb0be01500e14140bf17bf61bc2c2d97c906101000160405180910390a3610e1c61171b565b60058054906000610e2c83612c88565b91905055505050565b6005546000908152600460208181526040808420815160c0810183528154815260018201546001600160a01b0380821683870152600160a01b90910460ff1615158285015260028301546060830152600383015460808301529185015460a0820181905283516315ab88c960e31b81529351919561065d9591947f00000000000000000000000000000000000000000000000000000000000000009094169363ad5c464893818301939290918290030181865afa158015610efa573d6000803e3d6000fd5b505050506040513d601f19601f82011682018060405250810190610f1e9190612c47565b600360009054906101000a90046001600160a01b03166001600160a01b0316636f307dc36040518163ffffffff1660e01b8152600401602060405180830381865afa158015610f71573d6000803e3d6000fd5b505050506040513d601f19601f82011682018060405250810190610f959190612c47565b61196e565b600080610fa5611ab8565b6000805460408051633be8261b60e01b8152905193945091926101009091046001600160a01b031691636e791c83918391633be8261b9160048083019260209291908290030181865afa158015611000573d6000803e3d6000fd5b505050506040513d601f19601f820116820180604052508101906110249190612bd8565b6040518263ffffffff1660e01b81526004016110439151815260200190565b602060405180830381865afa158015611060573d6000803e3d6000fd5b505050506040513d601f19601f820116820180604052508101906110849190612bd8565b9050600061109561075c83856110d3565b949350505050565b60408051602081019091526000815260405180602001604052806110ca85670de0b6b3a764000086611bb7565b90529392505050565b6040805160208101909152600081526040805160208101909152835181906110ca9085611bcd565b805160009061111290670de0b6b3a7640000611bd9565b92915050565b60025461112e906001600160a01b031682611be5565b50565b60015460408051630d6f124f60e41b815290516000926001600160a01b03169163d6f124f0916004808301928692919082900301818387803b15801561117657600080fd5b505af115801561118a573d6000803e3d6000fd5b5050505060006111ea61075c84600160009054906101000a90046001600160a01b03166001600160a01b0316633be8261b6040518163ffffffff1660e01b8152600401602060405180830381865afa158015610732573d6000803e3d6000fd5b905060006111f6610603565b905061109561075c82846110d3565b60025461121a906001600160a01b0316611c32565b600060019054906101000a90046001600160a01b03166001600160a01b031663d6f124f06040518163ffffffff1660e01b8152600401600060405180830381600087803b15801561126a57600080fd5b505af115801561127e573d6000803e3d6000fd5b50505050600061128c610f9a565b90508082111561129a578091505b6003546112b0906001600160a01b031683611d4e565b5050565b6040805160028082526060820183526000928392919060208301908036833701905050905082816000815181106112ed576112ed612ca1565b60200260200101906001600160a01b031690816001600160a01b0316815250507f00000000000000000000000000000000000000000000000000000000000000006001600160a01b031663ad5c46486040518163ffffffff1660e01b8152600401602060405180830381865afa15801561136b573d6000803e3d6000fd5b505050506040513d601f19601f8201168201806040525081019061138f9190612c47565b816001815181106113a2576113a2612ca1565b6001600160a01b0392831660209182029290920101526040516318cbafe560e01b81527f0000000000000000000000000000000000000000000000000000000000000000909116906318cbafe590611407908790600090869030904290600401612cfb565b6000604051808303816000875af1158015611426573d6000803e3d6000fd5b505050506040513d6000823e601f3d908101601f1916820160405261144e9190810190612d37565b60018151811061146057611460612ca1565b602002602001015191505092915050565b604080516002808252606082018352600092839291906020830190803683370190505090507f00000000000000000000000000000000000000000000000000000000000000006001600160a01b031663ad5c46486040518163ffffffff1660e01b8152600401602060405180830381865afa1580156114f4573d6000803e3d6000fd5b505050506040513d601f19601f820116820180604052508101906115189190612c47565b8160008151811061152b5761152b612ca1565b60200260200101906001600160a01b031690816001600160a01b031681525050828160018151811061155f5761155f612ca1565b6001600160a01b039283166020918202929092010152604051637ff36ab560e01b81527f000000000000000000000000000000000000000000000000000000000000000090911690637ff36ab59086906115c490600090869030904290600401612ddd565b60006040518083038185885af11580156115e2573d6000803e3d6000fd5b50505050506040513d6000823e601f3d908101601f1916820160405261144e9190810190612d37565b6003546040516305eff7ef60e21b81523060048201526000916001600160a01b0316906317bfdfbc906024016020604051808303816000875af1158015611656573d6000803e3d6000fd5b505050506040513d601f19601f8201168201806040525081019061167a9190612b78565b600354909150611693906001600160a01b031682611de5565b600254604051633af9e66960e01b81523060048201526000916001600160a01b031690633af9e669906024016020604051808303816000875af11580156116de573d6000803e3d6000fd5b505050506040513d601f19601f820116820180604052508101906117029190612b78565b6002549091506112b0906001600160a01b031682611e32565b60035460408051636f307dc360e01b815290516000926001600160a01b031691636f307dc39160048083019260209291908290030181865afa158015611765573d6000803e3d6000fd5b505050506040513d601f19601f820116820180604052508101906117899190612c47565b6040516370a0823160e01b81523060048201529091506000906001600160a01b038316906370a0823190602401602060405180830381865afa1580156117d3573d6000803e3d6000fd5b505050506040513d601f19601f820116820180604052508101906117f79190612b78565b905061180d6001600160a01b0383163383611ec3565b60405181815233906001600160a01b0384169082907f08c1fcaf583c2b413bb27833685230422583405ae651b6d53e2053bf75bd07409060200160405180910390a46118593347611f15565b604051478152339081907f6b1f4ce962fec27598edceab6195c77516c3df32025eaf0c38d0d4009ac3bd489060200160405180910390a361189861202e565b60006118a26120a3565b6040516370a0823160e01b81523060048201529091506000906001600160a01b038316906370a0823190602401602060405180830381865afa1580156118ec573d6000803e3d6000fd5b505050506040513d601f19601f820116820180604052508101906119109190612b78565b90506119266001600160a01b0383163383611ec3565b60405181815233906001600160a01b0384169082907f08c1fcaf583c2b413bb27833685230422583405ae651b6d53e2053bf75bd07409060200160405180910390a450505050565b6000807f00000000000000000000000000000000000000000000000000000000000000006001600160a01b031663c45a01556040518163ffffffff1660e01b8152600401602060405180830381865afa1580156119cf573d6000803e3d6000fd5b505050506040513d601f19601f820116820180604052508101906119f39190612c47565b60408051600280825260608201835292935060009290916020830190803683370190505090508481600081518110611a2d57611a2d612ca1565b60200260200101906001600160a01b031690816001600160a01b0316815250508381600181518110611a6157611a61612ca1565b60200260200101906001600160a01b031690816001600160a01b0316815250506000611a8e838884612127565b905080600181518110611aa357611aa3612ca1565b602002602001015193505050505b9392505050565b604051635ec88c7960e01b81523060048201526000908190819081906001600160a01b037f00000000000000000000000000000000000000000000000000000000000000001690635ec88c7990602401606060405180830381865afa158015611b25573d6000803e3d6000fd5b505050506040513d601f19601f82011682018060405250810190611b499190612e12565b92509250925082600014611b7057604051630cf3d76b60e01b815260040160405180910390fd5b8015611b8f57604051637d21c4cb60e11b815260040160405180910390fd5b81600003611bb057604051630548fbcb60e01b815260040160405180910390fd5b5092915050565b600061109582611bc78686611bcd565b90611bd9565b6000611ab18284612e40565b6000611ab18284612e5f565b7f00000000000000000000000000000000000000000000000000000000000000006001600160a01b0316826001600160a01b031603611c28576112b082826122b2565b6112b08282612358565b604080516001808252818301909252600091602080830190803683370190505090508181600081518110611c6857611c68612ca1565b6001600160a01b039283166020918202929092010152604051631853304760e31b81526000917f0000000000000000000000000000000000000000000000000000000000000000169063c299823890611cc5908590600401612e81565b6000604051808303816000875af1158015611ce4573d6000803e3d6000fd5b505050506040513d6000823e601f3d908101601f19168201604052611d0c9190810190612d37565b905080600081518110611d2157611d21612ca1565b6020026020010151600014611d49576040516355ec0d1f60e01b815260040160405180910390fd5b505050565b60405163317afabb60e21b81526004810182905282906000906001600160a01b0383169063c5ebeaec906024016020604051808303816000875af1158015611d9a573d6000803e3d6000fd5b505050506040513d601f19601f82011682018060405250810190611dbe9190612b78565b90508015611ddf5760405163f73f621760e01b815260040160405180910390fd5b50505050565b7f00000000000000000000000000000000000000000000000000000000000000006001600160a01b0316826001600160a01b031603611e28576112b08282612515565b6112b08282612555565b60405163852a12e360e01b81526004810182905282906000906001600160a01b0383169063852a12e3906024016020604051808303816000875af1158015611e7e573d6000803e3d6000fd5b505050506040513d601f19601f82011682018060405250810190611ea29190612b78565b90508015611ddf57604051639a6f6e3760e01b815260040160405180910390fd5b604080516001600160a01b038416602482015260448082018490528251808303909101815260649091019091526020810180516001600160e01b031663a9059cbb60e01b179052611d499084906125e6565b80471015611f655760405162461bcd60e51b815260206004820152601d60248201527f416464726573733a20696e73756666696369656e742062616c616e63650000006044820152606401610835565b6000826001600160a01b03168260405160006040518083038185875af1925050503d8060008114611fb2576040519150601f19603f3d011682016040523d82523d6000602084013e611fb7565b606091505b5050905080611d495760405162461bcd60e51b815260206004820152603a60248201527f416464726573733a20756e61626c6520746f2073656e642076616c75652c207260448201527f6563697069656e74206d617920686176652072657665727465640000000000006064820152608401610835565b6040516374d7814960e11b81523060048201527f00000000000000000000000000000000000000000000000000000000000000006001600160a01b03169063e9af029290602401600060405180830381600087803b15801561208f57600080fd5b505af1158015611ddf573d6000803e3d6000fd5b60007f00000000000000000000000000000000000000000000000000000000000000006001600160a01b0316639d1b5a0a6040518163ffffffff1660e01b8152600401602060405180830381865afa158015612103573d6000803e3d6000fd5b505050506040513d601f19601f82011682018060405250810190610b1a9190612c47565b606060028251101561217b5760405162461bcd60e51b815260206004820152601e60248201527f556e697377617056324c6962726172793a20494e56414c49445f5041544800006044820152606401610835565b815167ffffffffffffffff81111561219557612195612b91565b6040519080825280602002602001820160405280156121be578160200160208202803683370190505b50905082816000815181106121d5576121d5612ca1565b60200260200101818152505060005b600183516121f29190612c30565b8110156122aa576000806122458786858151811061221257612212612ca1565b6020026020010151878660016122289190612c70565b8151811061223857612238612ca1565b60200260200101516126b8565b9150915061226d84848151811061225e5761225e612ca1565b602002602001015183836127ed565b84612279856001612c70565b8151811061228957612289612ca1565b602002602001018181525050505080806122a290612c88565b9150506121e4565b509392505050565b600034116122fa5760405162461bcd60e51b81526020600482015260156024820152746d7573742073656e6420657468657220616c6f6e6760581b6044820152606401610835565b6000829050806001600160a01b0316631249c58b836040518263ffffffff1660e01b81526004016000604051808303818588803b15801561233a57600080fd5b505af115801561234e573d6000803e3d6000fd5b5050505050505050565b341561239e5760405162461bcd60e51b815260206004820152601560248201527463616e742073656e6420657468657220616c6f6e6760581b6044820152606401610835565b60008290506000816001600160a01b0316636f307dc36040518163ffffffff1660e01b8152600401602060405180830381865afa1580156123e3573d6000803e3d6000fd5b505050506040513d601f19601f820116820180604052508101906124079190612c47565b60405163095ea7b360e01b81526001600160a01b038681166004830152602482018690529192509082169063095ea7b3906044016020604051808303816000875af115801561245a573d6000803e3d6000fd5b505050506040513d601f19601f8201168201806040525081019061247e9190612e94565b5060405163140e25ad60e31b8152600481018490526000906001600160a01b0384169063a0712d68906024016020604051808303816000875af11580156124c9573d6000803e3d6000fd5b505050506040513d601f19601f820116820180604052508101906124ed9190612b78565b9050801561250e576040516366d4583360e11b815260040160405180910390fd5b5050505050565b6000829050806001600160a01b0316634e4d9fea836040518263ffffffff1660e01b81526004016000604051808303818588803b15801561233a57600080fd5b60405163073a938160e11b81526004810182905282906000906001600160a01b03831690630e752702906024016020604051808303816000875af11580156125a1573d6000803e3d6000fd5b505050506040513d601f19601f820116820180604052508101906125c59190612b78565b90508015611ddf57604051630df43fe160e11b815260040160405180910390fd5b600061263b826040518060400160405280602081526020017f5361666545524332303a206c6f772d6c6576656c2063616c6c206661696c6564815250856001600160a01b031661290c9092919063ffffffff16565b805190915015611d4957808060200190518101906126599190612e94565b611d495760405162461bcd60e51b815260206004820152602a60248201527f5361666545524332303a204552433230206f7065726174696f6e20646964206e6044820152691bdd081cdd58d8d9595960b21b6064820152608401610835565b60008060006126c7858561291b565b5060405163e6a4390560e01b81526001600160a01b038681166004830152878116602483015291925060009182919089169063e6a4390590604401602060405180830381865afa15801561271f573d6000803e3d6000fd5b505050506040513d601f19601f820116820180604052508101906127439190612c47565b6001600160a01b0316630902f1ac6040518163ffffffff1660e01b8152600401606060405180830381865afa158015612780573d6000803e3d6000fd5b505050506040513d601f19601f820116820180604052508101906127a49190612ed2565b506001600160701b031691506001600160701b03169150826001600160a01b0316876001600160a01b0316146127db5780826127de565b81815b90999098509650505050505050565b60008084116128525760405162461bcd60e51b815260206004820152602b60248201527f556e697377617056324c6962726172793a20494e53554646494349454e545f4960448201526a1394155517d05353d5539560aa1b6064820152608401610835565b6000831180156128625750600082115b6128bf5760405162461bcd60e51b815260206004820152602860248201527f556e697377617056324c6962726172793a20494e53554646494349454e545f4c604482015267495155494449545960c01b6064820152608401610835565b60006128cd856103e5611bcd565b905060006128db8285611bcd565b905060006128f5836128ef886103e8611bcd565b90612a12565b90506129018183612e5f565b979650505050505050565b60606110958484600085612a1e565b600080826001600160a01b0316846001600160a01b03160361298d5760405162461bcd60e51b815260206004820152602560248201527f556e697377617056324c6962726172793a204944454e544943414c5f41444452604482015264455353455360d81b6064820152608401610835565b826001600160a01b0316846001600160a01b0316106129ad5782846129b0565b83835b90925090506001600160a01b038216612a0b5760405162461bcd60e51b815260206004820152601e60248201527f556e697377617056324c6962726172793a205a45524f5f4144445245535300006044820152606401610835565b9250929050565b6000611ab18284612c70565b606082471015612a7f5760405162461bcd60e51b815260206004820152602660248201527f416464726573733a20696e73756666696369656e742062616c616e636520666f6044820152651c8818d85b1b60d21b6064820152608401610835565b6001600160a01b0385163b612ad65760405162461bcd60e51b815260206004820152601d60248201527f416464726573733a2063616c6c20746f206e6f6e2d636f6e74726163740000006044820152606401610835565b600080866001600160a01b03168587604051612af29190612f4e565b60006040518083038185875af1925050503d8060008114612b2f576040519150601f19603f3d011682016040523d82523d6000602084013e612b34565b606091505b509150915061290182828660608315612b4e575081611ab1565b825115612b5e5782518084602001fd5b8160405162461bcd60e51b81526004016108359190612f6a565b600060208284031215612b8a57600080fd5b5051919050565b634e487b7160e01b600052604160045260246000fd5b604051601f8201601f1916810167ffffffffffffffff81118282101715612bd057612bd0612b91565b604052919050565b600060208284031215612bea57600080fd5b6040516020810181811067ffffffffffffffff82111715612c0d57612c0d612b91565b6040529151825250919050565b634e487b7160e01b600052601160045260246000fd5b600082821015612c4257612c42612c1a565b500390565b600060208284031215612c5957600080fd5b81516001600160a01b0381168114611ab157600080fd5b60008219821115612c8357612c83612c1a565b500190565b600060018201612c9a57612c9a612c1a565b5060010190565b634e487b7160e01b600052603260045260246000fd5b600081518084526020808501945080840160005b83811015612cf05781516001600160a01b031687529582019590820190600101612ccb565b509495945050505050565b85815284602082015260a060408201526000612d1a60a0830186612cb7565b6001600160a01b0394909416606083015250608001529392505050565b60006020808385031215612d4a57600080fd5b825167ffffffffffffffff80821115612d6257600080fd5b818501915085601f830112612d7657600080fd5b815181811115612d8857612d88612b91565b8060051b9150612d99848301612ba7565b8181529183018401918481019088841115612db357600080fd5b938501935b83851015612dd157845182529385019390850190612db8565b98975050505050505050565b848152608060208201526000612df66080830186612cb7565b6001600160a01b03949094166040830152506060015292915050565b600080600060608486031215612e2757600080fd5b8351925060208401519150604084015190509250925092565b6000816000190483118215151615612e5a57612e5a612c1a565b500290565b600082612e7c57634e487b7160e01b600052601260045260246000fd5b500490565b602081526000611ab16020830184612cb7565b600060208284031215612ea657600080fd5b81518015158114611ab157600080fd5b80516001600160701b0381168114612ecd57600080fd5b919050565b600080600060608486031215612ee757600080fd5b612ef084612eb6565b9250612efe60208501612eb6565b9150604084015163ffffffff81168114612f1757600080fd5b809150509250925092565b60005b83811015612f3d578181015183820152602001612f25565b83811115611ddf5750506000910152565b60008251612f60818460208701612f22565b9190910192915050565b6020815260008251806020840152612f89816040850160208701612f22565b601f01601f1916919091016040019291505056fea264697066735822122069faf05226a7e5749e4b2dcb344caf02df1a8c0f8b662829c5248d9ab557465464736f6c634300080d00336163636f756e742063616e6e6f7420626520746865207a65726f206164647265",
  "devdoc": {
    "kind": "dev",
    "methods": {
      "paused()": {
        "details": "Returns true if the contract is paused, and false otherwise."
      }
    },
    "version": 1
  },
  "userdoc": {
    "kind": "user",
    "methods": {},
    "version": 1
  },
  "storageLayout": {
    "storage": [
      {
        "astId": 168,
        "contract": "src/LongPosition.sol:LongPosition",
        "label": "_paused",
        "offset": 0,
        "slot": "0",
        "type": "t_bool"
      },
      {
        "astId": 2811,
        "contract": "src/LongPosition.sol:LongPosition",
        "label": "borrowOracle",
        "offset": 1,
        "slot": "0",
        "type": "t_contract(IOracleRef)5764"
      },
      {
        "astId": 2814,
        "contract": "src/LongPosition.sol:LongPosition",
        "label": "supplyOracle",
        "offset": 0,
        "slot": "1",
        "type": "t_contract(IOracleRef)5764"
      },
      {
        "astId": 2817,
        "contract": "src/LongPosition.sol:LongPosition",
        "label": "cTokenToSupply",
        "offset": 0,
        "slot": "2",
        "type": "t_contract(ICEther)4716"
      },
      {
        "astId": 2820,
        "contract": "src/LongPosition.sol:LongPosition",
        "label": "cTokenToBorrow",
        "offset": 0,
        "slot": "3",
        "type": "t_contract(ICToken)4785"
      },
      {
        "astId": 2838,
        "contract": "src/LongPosition.sol:LongPosition",
        "label": "positions",
        "offset": 0,
        "slot": "4",
        "type": "t_mapping(t_uint256,t_struct(Position)2833_storage)"
      },
      {
        "astId": 2841,
        "contract": "src/LongPosition.sol:LongPosition",
        "label": "currentPosionId",
        "offset": 0,
        "slot": "5",
        "type": "t_uint256"
      }
    ],
    "types": {
      "t_address": {
        "encoding": "inplace",
        "label": "address",
        "numberOfBytes": "20"
      },
      "t_bool": {
        "encoding": "inplace",
        "label": "bool",
        "numberOfBytes": "1"
      },
      "t_contract(ICEther)4716": {
        "encoding": "inplace",
        "label": "contract ICEther",
        "numberOfBytes": "20"
      },
      "t_contract(ICToken)4785": {
        "encoding": "inplace",
        "label": "contract ICToken",
        "numberOfBytes": "20"
      },
      "t_contract(IOracleRef)5764": {
        "encoding": "inplace",
        "label": "contract IOracleRef",
        "numberOfBytes": "20"
      },
      "t_mapping(t_uint256,t_struct(Position)2833_storage)": {
        "encoding": "mapping",
        "key": "t_uint256",
        "label": "mapping(uint256 => struct LongPosition.Position)",
        "numberOfBytes": "32",
        "value": "t_struct(Position)2833_storage"
      },
      "t_struct(Position)2833_storage": {
        "encoding": "inplace",
        "label": "struct LongPosition.Position",
        "members": [
          {
            "astId": 2822,
            "contract": "src/LongPosition.sol:LongPosition",
            "label": "id",
            "offset": 0,
            "slot": "0",
            "type": "t_uint256"
          },
          {
            "astId": 2824,
            "contract": "src/LongPosition.sol:LongPosition",
            "label": "owner",
            "offset": 0,
            "slot": "1",
            "type": "t_address"
          },
          {
            "astId": 2826,
            "contract": "src/LongPosition.sol:LongPosition",
            "label": "isActive",
            "offset": 20,
            "slot": "1",
            "type": "t_bool"
          },
          {
            "astId": 2828,
            "contract": "src/LongPosition.sol:LongPosition",
            "label": "depositAmount",
            "offset": 0,
            "slot": "2",
            "type": "t_uint256"
          },
          {
            "astId": 2830,
            "contract": "src/LongPosition.sol:LongPosition",
            "label": "borrowAmount",
            "offset": 0,
            "slot": "3",
            "type": "t_uint256"
          },
          {
            "astId": 2832,
            "contract": "src/LongPosition.sol:LongPosition",
            "label": "leverageAmount",
            "offset": 0,
            "slot": "4",
            "type": "t_uint256"
          }
        ],
        "numberOfBytes": "160"
      },
      "t_uint256": {
        "encoding": "inplace",
        "label": "uint256",
        "numberOfBytes": "32"
      }
    }
  }
}