{
  "address": "0xbd63D8E49d7007c1757fD6245E950a3517582536",
  "abi": [
    {
      "inputs": [
        {
          "internalType": "address",
          "name": "_chainlinkOracle",
          "type": "address"
        }
      ],
      "stateMutability": "nonpayable",
      "type": "constructor"
    },
    {
      "anonymous": false,
      "inputs": [
        {
          "indexed": false,
          "internalType": "address",
          "name": "account",
          "type": "address"
        }
      ],
      "name": "Paused",
      "type": "event"
    },
    {
      "anonymous": false,
      "inputs": [
        {
          "indexed": false,
          "internalType": "address",
          "name": "account",
          "type": "address"
        }
      ],
      "name": "Unpaused",
      "type": "event"
    },
    {
      "anonymous": false,
      "inputs": [
        {
          "indexed": false,
          "internalType": "uint256",
          "name": "_peg",
          "type": "uint256"
        }
      ],
      "name": "Update",
      "type": "event"
    },
    {
      "inputs": [],
      "name": "chainlinkOracle",
      "outputs": [
        {
          "internalType": "contract AggregatorV3Interface",
          "name": "",
          "type": "address"
        }
      ],
      "stateMutability": "view",
      "type": "function"
    },
    {
      "inputs": [],
      "name": "isOutdated",
      "outputs": [
        {
          "internalType": "bool",
          "name": "",
          "type": "bool"
        }
      ],
      "stateMutability": "view",
      "type": "function"
    },
    {
      "inputs": [],
      "name": "oracleDecimalsNormalizer",
      "outputs": [
        {
          "internalType": "uint256",
          "name": "",
          "type": "uint256"
        }
      ],
      "stateMutability": "view",
      "type": "function"
    },
    {
      "inputs": [],
      "name": "paused",
      "outputs": [
        {
          "internalType": "bool",
          "name": "",
          "type": "bool"
        }
      ],
      "stateMutability": "view",
      "type": "function"
    },
    {
      "inputs": [],
      "name": "read",
      "outputs": [
        {
          "components": [
            {
              "internalType": "uint256",
              "name": "value",
              "type": "uint256"
            }
          ],
          "internalType": "struct Decimal.D256",
          "name": "",
          "type": "tuple"
        },
        {
          "internalType": "bool",
          "name": "",
          "type": "bool"
        }
      ],
      "stateMutability": "view",
      "type": "function"
    },
    {
      "inputs": [],
      "name": "update",
      "outputs": [],
      "stateMutability": "view",
      "type": "function"
    }
  ],
  "transactionHash": "0x0dc302ea7444de26f280cd1f4038f7636c4506eb9043755bba91d33a6863a169",
  "args": [
    "0x5f4eC3Df9cbd43714FE2740f5E3616155c5b8419"
  ],
  "numDeployments": 1,
  "solcInputHash": "00805697ef62fdb68a8fef88f0980135",
  "bytecode": "0x608060405234801561001057600080fd5b506040516106a53803806106a583398101604081905261002f916100ea565b600080546001600160a81b0319166101006001600160a01b0384160217905561005661005c565b50610245565b60008060019054906101000a90046001600160a01b03166001600160a01b031663313ce5676040518163ffffffff1660e01b8152600401602060405180830381865afa1580156100b0573d6000803e3d6000fd5b505050506040513d601f19601f820116820180604052508101906100d4919061011a565b90506100e460ff8216600a610239565b60015550565b6000602082840312156100fc57600080fd5b81516001600160a01b038116811461011357600080fd5b9392505050565b60006020828403121561012c57600080fd5b815160ff8116811461011357600080fd5b634e487b7160e01b600052601160045260246000fd5b600181815b8085111561018e5781600019048211156101745761017461013d565b8085161561018157918102915b93841c9390800290610158565b509250929050565b6000826101a557506001610233565b816101b257506000610233565b81600181146101c857600281146101d2576101ee565b6001915050610233565b60ff8411156101e3576101e361013d565b50506001821b610233565b5060208310610133831016604e8410600b8410161715610211575081810a610233565b61021b8383610153565b806000190482111561022f5761022f61013d565b0290505b92915050565b60006101138383610196565b610451806102546000396000f3fe608060405234801561001057600080fd5b50600436106100625760003560e01c80634117d71e1461006757806357de26a4146100835780635c975abb146100a157806374d3bae5146100b8578063a2e62045146100c0578063ef06e72c146100ca575b600080fd5b61007060015481565b6040519081526020015b60405180910390f35b61008b6100fa565b604080519251835290151560208301520161007a565b60005460ff165b604051901515815260200161007a565b6100a86101f2565b6100c861028c565b005b6000546100e29061010090046001600160a01b031681565b6040516001600160a01b03909116815260200161007a565b604080516020810190915260008152600080600080600060019054906101000a90046001600160a01b03166001600160a01b031663feaf968c6040518163ffffffff1660e01b815260040160a060405180830381865afa158015610162573d6000803e3d6000fd5b505050506040513d601f19601f82011682018060405250810190610186919061037c565b9450505092509250600061019c60005460ff1690565b1580156101a95750600083135b80156101cc57508369ffffffffffffffffffff168269ffffffffffffffffffff16145b905060006101e56001546101df866102d8565b9061030d565b9791965090945050505050565b60008060008060019054906101000a90046001600160a01b03166001600160a01b031663feaf968c6040518163ffffffff1660e01b815260040160a060405180830381865afa158015610249573d6000803e3d6000fd5b505050506040513d601f19601f8201168201806040525081019061026d919061037c565b69ffffffffffffffffffff908116941693909314159695505050505050565b60005460ff16156102d65760405162461bcd60e51b815260206004820152601060248201526f14185d5cd8589b194e881c185d5cd95960821b604482015260640160405180910390fd5b565b60408051602081019091526000815260408051602081019091528061030584670de0b6b3a764000061033e565b905292915050565b6040805160208101909152600081526040805160208101909152835181906103359085610351565b90529392505050565b600061034a82846103cc565b9392505050565b600061034a82846103f9565b805169ffffffffffffffffffff8116811461037757600080fd5b919050565b600080600080600060a0868803121561039457600080fd5b61039d8661035d565b94506020860151935060408601519250606086015191506103c06080870161035d565b90509295509295909350565b60008160001904831182151516156103f457634e487b7160e01b600052601160045260246000fd5b500290565b60008261041657634e487b7160e01b600052601260045260246000fd5b50049056fea2646970667358221220cc59a8754cd6bd432eb05de503880fb78b492b3a852a643d384b1bed813b25aa64736f6c634300080d0033",
  "devdoc": {
    "kind": "dev",
    "methods": {
      "constructor": {
        "params": {
          "_chainlinkOracle": "reference to the target Chainlink oracle"
        }
      },
      "isOutdated()": {
        "returns": {
          "_0": "true if read value is stale"
        }
      },
      "paused()": {
        "details": "Returns true if the contract is paused, and false otherwise."
      },
      "read()": {
        "returns": {
          "_0": "oracle price",
          "_1": "true if price is valid"
        }
      },
      "update()": {
        "details": "no-op, Chainlink is updated automatically"
      }
    },
    "title": "Chainlink oracle wrapper",
    "version": 1
  },
  "userdoc": {
    "kind": "user",
    "methods": {
      "chainlinkOracle()": {
        "notice": "the referenced chainlink oracle"
      },
      "constructor": {
        "notice": "ChainlinkOracleWrapper constructor"
      },
      "isOutdated()": {
        "notice": "determine if read value is stale"
      },
      "read()": {
        "notice": "read the oracle price"
      },
      "update()": {
        "notice": "updates the oracle price"
      }
    },
    "notice": "Reads a Chainlink oracle value & wrap it under the standard oracle interface",
    "version": 1
  },
  "storageLayout": {
    "storage": [
      {
        "astId": 168,
        "contract": "src/oracle/ChainlinkOracleWrapper.sol:ChainlinkOracleWrapper",
        "label": "_paused",
        "offset": 0,
        "slot": "0",
        "type": "t_bool"
      },
      {
        "astId": 5506,
        "contract": "src/oracle/ChainlinkOracleWrapper.sol:ChainlinkOracleWrapper",
        "label": "chainlinkOracle",
        "offset": 1,
        "slot": "0",
        "type": "t_contract(AggregatorV3Interface)45"
      },
      {
        "astId": 5508,
        "contract": "src/oracle/ChainlinkOracleWrapper.sol:ChainlinkOracleWrapper",
        "label": "oracleDecimalsNormalizer",
        "offset": 0,
        "slot": "1",
        "type": "t_uint256"
      }
    ],
    "types": {
      "t_bool": {
        "encoding": "inplace",
        "label": "bool",
        "numberOfBytes": "1"
      },
      "t_contract(AggregatorV3Interface)45": {
        "encoding": "inplace",
        "label": "contract AggregatorV3Interface",
        "numberOfBytes": "20"
      },
      "t_uint256": {
        "encoding": "inplace",
        "label": "uint256",
        "numberOfBytes": "32"
      }
    }
  }
}