{
  "address": "0x6865a842548f3Fe233C93e77487578B0Cc468B1f",
  "abi": [
    {
      "inputs": [
        {
          "internalType": "address",
          "name": "_oracle",
          "type": "address"
        },
        {
          "internalType": "address",
          "name": "_backupOracle",
          "type": "address"
        },
        {
          "internalType": "bool",
          "name": "_isInvert",
          "type": "bool"
        }
      ],
      "stateMutability": "nonpayable",
      "type": "constructor"
    },
    {
      "anonymous": false,
      "inputs": [
        {
          "indexed": true,
          "internalType": "address",
          "name": "oldBackupOracle",
          "type": "address"
        },
        {
          "indexed": true,
          "internalType": "address",
          "name": "newBackupOracle",
          "type": "address"
        }
      ],
      "name": "BackupOracleUpdate",
      "type": "event"
    },
    {
      "anonymous": false,
      "inputs": [
        {
          "indexed": false,
          "internalType": "int256",
          "name": "oldDecimalsNormalizer",
          "type": "int256"
        },
        {
          "indexed": false,
          "internalType": "int256",
          "name": "newDecimalsNormalizer",
          "type": "int256"
        }
      ],
      "name": "DecimalsNormalizerUpdate",
      "type": "event"
    },
    {
      "anonymous": false,
      "inputs": [
        {
          "indexed": false,
          "internalType": "bool",
          "name": "oldDoInvert",
          "type": "bool"
        },
        {
          "indexed": false,
          "internalType": "bool",
          "name": "newDoInvert",
          "type": "bool"
        }
      ],
      "name": "InvertUpdate",
      "type": "event"
    },
    {
      "anonymous": false,
      "inputs": [
        {
          "indexed": true,
          "internalType": "address",
          "name": "oldOracle",
          "type": "address"
        },
        {
          "indexed": true,
          "internalType": "address",
          "name": "newOracle",
          "type": "address"
        }
      ],
      "name": "OracleUpdate",
      "type": "event"
    },
    {
      "anonymous": false,
      "inputs": [
        {
          "indexed": true,
          "internalType": "address",
          "name": "previousOwner",
          "type": "address"
        },
        {
          "indexed": true,
          "internalType": "address",
          "name": "newOwner",
          "type": "address"
        }
      ],
      "name": "OwnershipTransferred",
      "type": "event"
    },
    {
      "inputs": [],
      "name": "backupOracle",
      "outputs": [
        {
          "internalType": "contract IOracle",
          "name": "",
          "type": "address"
        }
      ],
      "stateMutability": "view",
      "type": "function"
    },
    {
      "inputs": [],
      "name": "decimalsNormalizer",
      "outputs": [
        {
          "internalType": "int256",
          "name": "",
          "type": "int256"
        }
      ],
      "stateMutability": "view",
      "type": "function"
    },
    {
      "inputs": [],
      "name": "doInvert",
      "outputs": [
        {
          "internalType": "bool",
          "name": "",
          "type": "bool"
        }
      ],
      "stateMutability": "view",
      "type": "function"
    },
    {
      "inputs": [
        {
          "components": [
            {
              "internalType": "uint256",
              "name": "value",
              "type": "uint256"
            }
          ],
          "internalType": "struct Decimal.D256",
          "name": "price",
          "type": "tuple"
        }
      ],
      "name": "invert",
      "outputs": [
        {
          "components": [
            {
              "internalType": "uint256",
              "name": "value",
              "type": "uint256"
            }
          ],
          "internalType": "struct Decimal.D256",
          "name": "",
          "type": "tuple"
        }
      ],
      "stateMutability": "pure",
      "type": "function"
    },
    {
      "inputs": [],
      "name": "oracle",
      "outputs": [
        {
          "internalType": "contract IOracle",
          "name": "",
          "type": "address"
        }
      ],
      "stateMutability": "view",
      "type": "function"
    },
    {
      "inputs": [],
      "name": "owner",
      "outputs": [
        {
          "internalType": "address",
          "name": "",
          "type": "address"
        }
      ],
      "stateMutability": "view",
      "type": "function"
    },
    {
      "inputs": [],
      "name": "readOracle",
      "outputs": [
        {
          "components": [
            {
              "internalType": "uint256",
              "name": "value",
              "type": "uint256"
            }
          ],
          "internalType": "struct Decimal.D256",
          "name": "",
          "type": "tuple"
        }
      ],
      "stateMutability": "view",
      "type": "function"
    },
    {
      "inputs": [],
      "name": "renounceOwnership",
      "outputs": [],
      "stateMutability": "nonpayable",
      "type": "function"
    },
    {
      "inputs": [
        {
          "internalType": "address",
          "name": "newBackupOracle",
          "type": "address"
        }
      ],
      "name": "setBackupOracle",
      "outputs": [],
      "stateMutability": "nonpayable",
      "type": "function"
    },
    {
      "inputs": [
        {
          "internalType": "int256",
          "name": "newDecimalsNormalizer",
          "type": "int256"
        }
      ],
      "name": "setDecimalsNormalizer",
      "outputs": [],
      "stateMutability": "nonpayable",
      "type": "function"
    },
    {
      "inputs": [
        {
          "internalType": "bool",
          "name": "newDoInvert",
          "type": "bool"
        }
      ],
      "name": "setDoInvert",
      "outputs": [],
      "stateMutability": "nonpayable",
      "type": "function"
    },
    {
      "inputs": [
        {
          "internalType": "address",
          "name": "newOracle",
          "type": "address"
        }
      ],
      "name": "setOracle",
      "outputs": [],
      "stateMutability": "nonpayable",
      "type": "function"
    },
    {
      "inputs": [
        {
          "internalType": "address",
          "name": "newOwner",
          "type": "address"
        }
      ],
      "name": "transferOwnership",
      "outputs": [],
      "stateMutability": "nonpayable",
      "type": "function"
    },
    {
      "inputs": [],
      "name": "updateOracle",
      "outputs": [],
      "stateMutability": "nonpayable",
      "type": "function"
    }
  ],
  "transactionHash": "0xd0904c140495e947ad92791c40da83b91999f4e5f3a4f3ff62e85a03b00c29eb",
  "args": [
    "0xbd63D8E49d7007c1757fD6245E950a3517582536",
    "0xbd63D8E49d7007c1757fD6245E950a3517582536",
    false
  ],
  "numDeployments": 1,
  "solcInputHash": "00805697ef62fdb68a8fef88f0980135",
  "bytecode": "0x60806040523480156200001157600080fd5b50604051620010a7380380620010a78339810160408190526200003491620002d4565b82826000836200004433620000ae565b6200004f84620000fe565b6001600160a01b038316158015906200007a5750836001600160a01b0316836001600160a01b031614155b156200008b576200008b83620001ab565b6200009681620001fd565b620000a18262000278565b50505050505050620003cd565b600080546001600160a01b038381166001600160a01b0319831681178455604051919092169283917f8be0079c531659141344cd1fd0a4f28419497f9722a3daafe3b4186f6b6457e09190a35050565b6001600160a01b038116620001595760405162461bcd60e51b815260206004820152601760248201527f4f7261636c655265663a207a65726f2061646472657373000000000000000000604482015260640160405180910390fd5b600180546001600160a01b038381166001600160a01b0319831681179093556040519116919082907f93450534569bdbb3109b44eef77c9b236897f4caa4f201be10252d6462a5693790600090a35050565b600280546001600160a01b038381166001600160a01b0319831681179093556040519116919082907f492cc1f8400b642b4e56de46ed10d314a49bf3e0594c43e2e5947c1e1733645b90600090a35050565b6004805482151560ff198216811790925560ff1690811515146200023757620002376003546000196200023191906200033c565b62000278565b60408051821515815283151560208201527f16b9ae7ca814a6dfd3357b20f33bcc7c194676988d5da46846628da394df8ab391015b60405180910390a15050565b600380549082905560408051828152602081018490527fc45ec9015c033bb1ee553a67346dd851062dddce070a6dddb7616e5d7595bcc291016200026c565b80516001600160a01b0381168114620002cf57600080fd5b919050565b600080600060608486031215620002ea57600080fd5b620002f584620002b7565b92506200030560208501620002b7565b9150604084015180151581146200031b57600080fd5b809150509250925092565b634e487b7160e01b600052601160045260246000fd5b60006001600160ff1b038184138284138082168684048611161562000365576200036562000326565b600160ff1b600087128281168783058912161562000387576200038762000326565b60008712925087820587128484161615620003a657620003a662000326565b87850587128184161615620003bf57620003bf62000326565b505050929093029392505050565b610cca80620003dd6000396000f3fe608060405234801561001057600080fd5b50600436106100ea5760003560e01c80637adbf9731161008c5780638da5cb5b116100665780638da5cb5b146101c9578063d6f124f0146101da578063f2fde38b146101e2578063ff2ca34c146101f557600080fd5b80637adbf973146101785780637dc0d1d01461018b578063836efd31146101b657600080fd5b80635936b637116100c85780635936b637146101335780636e791c8314610146578063715018a61461015957806373ab1ddd1461016157600080fd5b806303bd9edd146100ef57806325498401146101045780633be8261b14610117575b600080fd5b6101026100fd36600461095f565b610212565b005b610102610112366004610978565b610251565b61011f610284565b604051905181526020015b60405180910390f35b6101026101413660046109af565b610466565b61011f6101543660046109cc565b610499565b6101026104d5565b61016a60035481565b60405190815260200161012a565b610102610186366004610978565b61050b565b60015461019e906001600160a01b031681565b6040516001600160a01b03909116815260200161012a565b60025461019e906001600160a01b031681565b6000546001600160a01b031661019e565b61010261053e565b6101026101f0366004610978565b6105a8565b6004546102029060ff1681565b604051901515815260200161012a565b6000546001600160a01b031633146102455760405162461bcd60e51b815260040161023c90610a1c565b60405180910390fd5b61024e81610640565b50565b6000546001600160a01b0316331461027b5760405162461bcd60e51b815260040161023c90610a1c565b61024e81610686565b604080516020810190915260008152600154604080516315f789a960e21b8152815160009384936001600160a01b03909116926357de26a492600480830193928290030181865afa1580156102dd573d6000803e3d6000fd5b505050506040513d601f19601f820116820180604052508101906103019190610a51565b915091508015801561031d57506002546001600160a01b031615155b1561039357600254604080516315f789a960e21b815281516001600160a01b03909316926357de26a4926004808401939192918290030181865afa158015610369573d6000803e3d6000fd5b505050506040513d601f19601f8201168201806040525081019061038d9190610a51565b90925090505b806103e05760405162461bcd60e51b815260206004820152601960248201527f4f7261636c655265663a206f7261636c6520696e76616c696400000000000000604482015260640161023c565b6000806003541215610422576104046003546000196103ff9190610ade565b6106d8565b61040f90600a610c47565b905061041b838261072e565b9250610447565b61042d6003546106d8565b61043890600a610c47565b9050610444838261075f565b92505b60045460ff161561045e5761045b83610499565b92505b509092915050565b6000546001600160a01b031633146104905760405162461bcd60e51b815260040161023c90610a1c565b61024e81610787565b6040805160208082018352600080835283518083018552528251908101909252670de0b6b3a76400008252906104cf90836107f5565b92915050565b6000546001600160a01b031633146104ff5760405162461bcd60e51b815260040161023c90610a1c565b610509600061082a565b565b6000546001600160a01b031633146105355760405162461bcd60e51b815260040161023c90610a1c565b61024e8161087a565b600160009054906101000a90046001600160a01b03166001600160a01b031663a2e620456040518163ffffffff1660e01b8152600401600060405180830381600087803b15801561058e57600080fd5b505af11580156105a2573d6000803e3d6000fd5b50505050565b6000546001600160a01b031633146105d25760405162461bcd60e51b815260040161023c90610a1c565b6001600160a01b0381166106375760405162461bcd60e51b815260206004820152602660248201527f4f776e61626c653a206e6577206f776e657220697320746865207a65726f206160448201526564647265737360d01b606482015260840161023c565b61024e8161082a565b600380549082905560408051828152602081018490527fc45ec9015c033bb1ee553a67346dd851062dddce070a6dddb7616e5d7595bcc291015b60405180910390a15050565b600280546001600160a01b038381166001600160a01b0319831681179093556040519116919082907f492cc1f8400b642b4e56de46ed10d314a49bf3e0594c43e2e5947c1e1733645b90600090a35050565b60008082121561072a5760405162461bcd60e51b815260206004820181905260248201527f53616665436173743a2076616c7565206d75737420626520706f736974697665604482015260640161023c565b5090565b6040805160208101909152600081526040805160208101909152835181906107569085610922565b90529392505050565b6040805160208101909152600081526040805160208101909152835181906107569085610935565b6004805482151560ff198216811790925560ff1690811515146107bc576107bc6003546000196107b79190610ade565b610640565b60408051821515815283151560208201527f16b9ae7ca814a6dfd3357b20f33bcc7c194676988d5da46846628da394df8ab3910161067a565b60408051602081019091526000815260405180602001604052806107568560000151670de0b6b3a76400008660000151610941565b600080546001600160a01b038381166001600160a01b0319831681178455604051919092169283917f8be0079c531659141344cd1fd0a4f28419497f9722a3daafe3b4186f6b6457e09190a35050565b6001600160a01b0381166108d05760405162461bcd60e51b815260206004820152601760248201527f4f7261636c655265663a207a65726f2061646472657373000000000000000000604482015260640161023c565b600180546001600160a01b038381166001600160a01b0319831681179093556040519116919082907f93450534569bdbb3109b44eef77c9b236897f4caa4f201be10252d6462a5693790600090a35050565b600061092e8284610c53565b9392505050565b600061092e8284610c75565b6000610957826109518686610935565b90610922565b949350505050565b60006020828403121561097157600080fd5b5035919050565b60006020828403121561098a57600080fd5b81356001600160a01b038116811461092e57600080fd5b801515811461024e57600080fd5b6000602082840312156109c157600080fd5b813561092e816109a1565b6000602082840312156109de57600080fd5b6040516020810181811067ffffffffffffffff82111715610a0f57634e487b7160e01b600052604160045260246000fd5b6040529135825250919050565b6020808252818101527f4f776e61626c653a2063616c6c6572206973206e6f7420746865206f776e6572604082015260600190565b6000808284036040811215610a6557600080fd5b6020811215610a7357600080fd5b506040516020810181811067ffffffffffffffff82111715610aa557634e487b7160e01b600052604160045260246000fd5b604052835181526020840151909250610abd816109a1565b809150509250929050565b634e487b7160e01b600052601160045260246000fd5b60006001600160ff1b0381841382841380821686840486111615610b0457610b04610ac8565b600160ff1b6000871282811687830589121615610b2357610b23610ac8565b60008712925087820587128484161615610b3f57610b3f610ac8565b87850587128184161615610b5557610b55610ac8565b505050929093029392505050565b600181815b80851115610b9e578160001904821115610b8457610b84610ac8565b80851615610b9157918102915b93841c9390800290610b68565b509250929050565b600082610bb5575060016104cf565b81610bc2575060006104cf565b8160018114610bd85760028114610be257610bfe565b60019150506104cf565b60ff841115610bf357610bf3610ac8565b50506001821b6104cf565b5060208310610133831016604e8410600b8410161715610c21575081810a6104cf565b610c2b8383610b63565b8060001904821115610c3f57610c3f610ac8565b029392505050565b600061092e8383610ba6565b600082610c7057634e487b7160e01b600052601260045260246000fd5b500490565b6000816000190483118215151615610c8f57610c8f610ac8565b50029056fea26469706673582212202df2482243406e7070d298e08d4b0831f74c3849d5439fe063c183d4e0ace92a64736f6c634300080d0033",
  "devdoc": {
    "kind": "dev",
    "methods": {
      "invert((uint256))": {
        "details": "the inverted peg would be X per Token",
        "params": {
          "price": "the peg price to invert"
        },
        "returns": {
          "_0": "the inverted peg as a Decimal"
        }
      },
      "owner()": {
        "details": "Returns the address of the current owner."
      },
      "readOracle()": {
        "details": "the peg is defined as Pool token per X with X being ETH, dollars, etc",
        "returns": {
          "_0": "the peg as a Decimal"
        }
      },
      "renounceOwnership()": {
        "details": "Leaves the contract without owner. It will not be possible to call `onlyOwner` functions anymore. Can only be called by the current owner. NOTE: Renouncing ownership will leave the contract without an owner, thereby removing any functionality that is only available to the owner."
      },
      "setBackupOracle(address)": {
        "params": {
          "newBackupOracle": "the new backup oracle to reference"
        }
      },
      "setDecimalsNormalizer(int256)": {
        "params": {
          "newDecimalsNormalizer": "the new decimalsNormalizer"
        }
      },
      "setDoInvert(bool)": {
        "params": {
          "newDoInvert": "the new flag for whether to invert"
        }
      },
      "setOracle(address)": {
        "params": {
          "newOracle": "the new oracle to reference"
        }
      },
      "transferOwnership(address)": {
        "details": "Transfers ownership of the contract to a new account (`newOwner`). Can only be called by the current owner."
      }
    },
    "version": 1
  },
  "userdoc": {
    "kind": "user",
    "methods": {
      "backupOracle()": {
        "notice": "the backup oracle reference by the contract"
      },
      "decimalsNormalizer()": {
        "notice": "number of decimals to scale oracle price by, i.e. multiplying by 10^(decimalsNormalizer)"
      },
      "invert((uint256))": {
        "notice": "invert a peg price"
      },
      "oracle()": {
        "notice": "the oracle reference by the contract"
      },
      "readOracle()": {
        "notice": "the peg price of the referenced oracle"
      },
      "setBackupOracle(address)": {
        "notice": "sets the referenced backup oracle"
      },
      "setDecimalsNormalizer(int256)": {
        "notice": "sets the new decimalsNormalizer"
      },
      "setDoInvert(bool)": {
        "notice": "sets the flag for whether to invert or not"
      },
      "setOracle(address)": {
        "notice": "sets the referenced oracle"
      },
      "updateOracle()": {
        "notice": "updates the referenced oracle"
      }
    },
    "version": 1
  },
  "storageLayout": {
    "storage": [
      {
        "astId": 53,
        "contract": "src/oracle/PriceOracle.sol:PriceOracle",
        "label": "_owner",
        "offset": 0,
        "slot": "0",
        "type": "t_address"
      },
      {
        "astId": 5792,
        "contract": "src/oracle/PriceOracle.sol:PriceOracle",
        "label": "oracle",
        "offset": 0,
        "slot": "1",
        "type": "t_contract(IOracle)5652"
      },
      {
        "astId": 5797,
        "contract": "src/oracle/PriceOracle.sol:PriceOracle",
        "label": "backupOracle",
        "offset": 0,
        "slot": "2",
        "type": "t_contract(IOracle)5652"
      },
      {
        "astId": 5801,
        "contract": "src/oracle/PriceOracle.sol:PriceOracle",
        "label": "decimalsNormalizer",
        "offset": 0,
        "slot": "3",
        "type": "t_int256"
      },
      {
        "astId": 5804,
        "contract": "src/oracle/PriceOracle.sol:PriceOracle",
        "label": "doInvert",
        "offset": 0,
        "slot": "4",
        "type": "t_bool"
      }
    ],
    "types": {
      "t_address": {
        "encoding": "inplace",
        "label": "address",
        "numberOfBytes": "20"
      },
      "t_bool": {
        "encoding": "inplace",
        "label": "bool",
        "numberOfBytes": "1"
      },
      "t_contract(IOracle)5652": {
        "encoding": "inplace",
        "label": "contract IOracle",
        "numberOfBytes": "20"
      },
      "t_int256": {
        "encoding": "inplace",
        "label": "int256",
        "numberOfBytes": "32"
      }
    }
  }
}